:020000040000FA
:0400000036EF09F0DE
:1008000000312E436F6E662054696D6520202000F4
:100810002020202053544C20202000416D6172691B
:100820006C6C6F00566572646500526F6A6F0000F1
:1008300020EE37F010EE01F00F0EDBCFE3FFE806FD
:10084000FCE2000E116E000E136E000E126E1250BE
:100850001310D8A42EEF04F030EF04F062EF04F090
:10086000FE0E8A6EA60EE82EFED700D03AEF04F0F8
:1008700001C011F081A83FEF04F041EF04F038EF20
:1008800004F045EF04F002C011F081AA4AEF04F031
:100890004CEF04F043EF04F050EF04F003C011F00C
:1008A00081AC55EF04F057EF04F04EEF04F05BEF2E
:1008B00004F004C011F081AE60EF04F062EF04F0C8
:1008C00059EF04F012041310D8A469EF04F06BEF91
:1008D00004F09DEF04F0FD0E8A6EA60EE82EFED702
:1008E00000D075EF04F005C011F081A87AEF04F094
:1008F0007CEF04F073EF04F080EF04F006C011F019
:1009000081AA85EF04F087EF04F07EEF04F08BEF0F
:1009100004F007C011F081AC90EF04F092EF04F006
:1009200089EF04F096EF04F008C011F081AE9BEF60
:1009300004F09DEF04F094EF04F0020E121813106F
:10094000D8A4A5EF04F0A7EF04F0D9EF04F0FB0E54
:100950008A6EA60EE82EFED700D0B1EF04F009C0D3
:1009600011F081A8B6EF04F0B8EF04F0AFEF04F097
:10097000BCEF04F00AC011F081AAC1EF04F0C3EF8C
:1009800004F0BAEF04F0C7EF04F00BC011F081AC33
:10099000CCEF04F0CEEF04F0C5EF04F0D2EF04F09A
:1009A0000CC011F081AED7EF04F0D9EF04F0D0EF16
:1009B00004F0030E12181310D8A4E1EF04F0E3EFD3
:1009C00004F015EF05F0F70E8A6EA60EE82EFED79E
:1009D00000D0EDEF04F00DC011F081A8F2EF04F0AB
:1009E000F4EF04F0EBEF04F0F8EF04F00EC011F0B8
:1009F00081AAFDEF04F0FFEF04F0F6EF04F003EF3F
:100A000005F00FC011F081AC08EF05F00AEF05F01A
:100A100001EF05F00EEF05F010C011F081AE13EFFD
:100A200005F015EF05F00CEF05F0124A132A13BE7E
:100A300023EF05F0135009E1040E125CD8A023EF58
:100A400005F025EF05F027EF04F01150120007EF35
:100A500006F096EC06F0CBEF05F0010E026E0A0EE2
:100A6000A7EC08F0335087EC07F02EC030F0305080
:100A70000A0DF3CF14F0F4CF15F014C016F015C022
:100A800017F0000E17BEFF0E186E196EF0EF05F08E
:100A9000010E026E0B0EA7EC08F0335087EC07F046
:100AA0002EC02FF02F501A6E1B6A1C6A1D6A1A5036
:100AB00016241E6E1B5017201F6E1C501820206E0F
:100AC0001D501920216E1EC034F0F0EF05F0020E0B
:100AD000026E0A0EA7EC08F0335087EC07F035EFF2
:100AE00005F0020E026E0B0EA7EC08F0335087ECF7
:100AF00007F02EC02FF02F501A6E1B6A1C6A1D6A59
:100B00001A5016241E6E1B5017201F6E1C501820E2
:100B1000206E1D501920216E1EC035F0F0EF05F03B
:100B200064EC09F0010E026E010EA7EC08F0240E31
:100B3000026E080E036E050E046E17EC09F0010E2E
:100B4000026E0A0EA7EC08F0335087EC07F035EF81
:100B500005F0010E026E0B0EA7EC08F0335087EC87
:100B600007F02EC02FF02F501A6E1B6A1C6A1D6AE8
:100B70001A5016241E6E1B5017201F6E1C50182072
:100B8000206E1D501920216E1EC036F0340E60EC10
:100B900009F0F0EF05F04750146E156A1550000A81
:100BA000D8B4D5EF05F0F0EF05F01450010AD8B431
:100BB0002DEF05F0030AD8B448EF05F0010AD8B4C8
:100BC00067EF05F0070AD8B471EF05F0010AD8B451
:100BD00090EF05F0030AD8B4A9EF05F0F0EF05F0A7
:100BE000472A060E4764F7EF05F0F9EF05F0FBEF33
:100BF00005F0010E476E322A230E3318D8A403EFF6
:100C000006F005EF06F007EF06F0000E316E3150EA
:100C1000D8A40DEF06F00FEF06F029EF05F0120053
:100C2000000E0A6E08BE19EF06F017EF06F023EF6C
:100C300006F0081E071E061E056C000E062207227F
:100C40000822010E0A6E04BE2AEF06F028EF06F015
:100C500034EF06F0041E031E021E016C000E022279
:100C600003220422010E0A1A000E0B6E000E0C6EF7
:100C7000000E0D6E000E0E6E0550061007100810C7
:100C8000D8B445EF06F047EF06F07DEF06F0010E11
:100C9000096E51EF06F0D89005360636073608364D
:100CA000092A08AE56EF06F058EF06F04BEF06F0B3
:100CB000D8900B360C360D360E360550015C0650BA
:100CC00002580750035808500458D8A06AEF06F09D
:100CD0006CEF06F075EF06F00550015E0650025A03
:100CE0000750035A0850045A0B80D8900832073234
:100CF00006320532092E58EF06F00A50D8B483EFB9
:100D000006F085EF06F08DEF06F00E1E0D1E0C1E90
:100D10000B6C000E0C220D220E220BC001F00CC039
:100D200002F00DC003F00EC004F0120018EC04F045
:100D3000336E3350D8B49FEF06F0A1EF06F096EF74
:100D400006F03350D8B4A7EF06F0A9EF06F017EF7E
:100D500007F0300E3318D8A4B0EF06F0B2EF06F06B
:100D6000B4EF06F0000E2E6E310E3318D8A4BBEF90
:100D700006F0BDEF06F0BFEF06F0010E2E6E320E4C
:100D80003318D8A4C6EF06F0C8EF06F0CAEF06F095
:100D9000020E2E6E330E3318D8A4D1EF06F0D3EF27
:100DA00006F0D5EF06F0030E2E6E340E3318D8A4DD
:100DB000DCEF06F0DEEF06F0E0EF06F0040E2E6E3C
:100DC000350E3318D8A4E7EF06F0E9EF06F0EBEFA5
:100DD00006F0050E2E6E360E3318D8A4F2EF06F08C
:100DE000F4EF06F0F6EF06F0060E2E6E370E33180F
:100DF000D8A4FDEF06F0FFEF06F001EF07F0070EB5
:100E00002E6E380E3318D8A408EF07F00AEF07F05B
:100E10000CEF07F0080E2E6E390E3318D8A413EF1E
:100E200007F015EF07F017EF07F0090E2E6E12000E
:100E3000016E8C9001A81FEF07F021EF07F024EF5F
:100E400007F08C8825EF07F08C9801AA2AEF07F0AD
:100E50002CEF07F02FEF07F08C8A30EF07F08C9A19
:100E600001AC35EF07F037EF07F03AEF07F08C8C65
:100E70003BEF07F08C9C01AE40EF07F042EF07F02C
:100E800045EF07F08C8E46EF07F08C9E8C84C80EE1
:100E900000D0E82EFDD78C94C80E00D0E82EFDD7E8
:100EA00001A055EF07F057EF07F05AEF07F08C88D5
:100EB0005BEF07F08C9801A260EF07F062EF07F09C
:100EC00065EF07F08C8A66EF07F08C9A01A46BEF50
:100ED00007F06DEF07F070EF07F08C8C71EF07F003
:100EE0008C9C01A676EF07F078EF07F07BEF07F018
:100EF0008C8E7CEF07F08C9E8C84C80E00D0E82E80
:100F0000FDD78C94C80E00D0E82EFDD71200016EDC
:100F10008C8001A88EEF07F090EF07F093EF07F0B9
:100F20008C8894EF07F08C9801AA99EF07F09BEF5B
:100F300007F09EEF07F08C8A9FEF07F08C9A01ACC8
:100F4000A4EF07F0A6EF07F0A9EF07F08C8CAAEF4B
:100F500007F08C9C01AEAFEF07F0B1EF07F0B4EFF4
:100F600007F08C8EB5EF07F08C9E8C84640EE82E13
:100F7000FED78C94640EE82EFED701A0C2EF07F0D6
:100F8000C4EF07F0C7EF07F08C88C8EF07F08C9824
:100F900001A2CDEF07F0CFEF07F0D2EF07F08C8A78
:100FA000D3EF07F08C9A01A4D8EF07F0DAEF07F03F
:100FB000DDEF07F08C8CDEEF07F08C9C01A6E3EFF1
:100FC00007F0E5EF07F0E8EF07F08C8EE9EF07F0A8
:100FD0008C9E8C84640EE82EFED78C94640EE82ED2
:100FE000FED71200000E946E000E956E000E826EFB
:100FF000800E0F6E250E106E000E116E000E126E1A
:10100000DFEC08F059EC08F05AEC09F03150D8A4A4
:101010000CEF08F00EEF08F02AEF08F064EC09F08E
:10102000010E026E050EA7EC08F0100E026E080EFF
:10103000036E080E046E17EC09F0020E026E020E2B
:10104000A7EC08F0010E026E080E036E0F0E046E80
:1010500017EC09F096EC06F0310E3318D8A433EFF4
:1010600008F035EF08F006EF08F064EC09F0010E27
:10107000026E010EA7EC08F02A0E026E080E036E37
:10108000050E046E17EC09F0020E026E010EA7ECBD
:1010900008F01B0E026E080E036E080E046E17ECAD
:1010A00009F0010E316E27EC05F006EF08F000EFB5
:1010B00000F0140E026E7A0EE82EFED7022EFCD738
:1010C0009590959295949598959A959C959E8C9EC1
:1010D0008C9C8C9A8C988C948C928C908C9E8C9CF2
:1010E0008C8A8C888C848C928C90C80E00D0E82ED0
:1010F000FDD78C94C80E00D0E82EFDD78C9E8C9C1A
:101100008C8A8C888C848C928C90C80E00D0E82EAF
:10111000FDD78C94C80E00D0E82EFDD78C9E8C9CF9
:101120008C8A8C988C848C928C90C80E00D0E82E7F
:10113000FDD78C94C80E00D0E82EFDD7280E18ECF1
:1011400007F00C0E18EC07F064EC09F01200066EC4
:10115000BDEF08F00604056EDAEF08F006503F0F09
:10116000056EDAEF08F00650130F056EDAEF08F09F
:101170000650530F056EDAEF08F00250036E046A52
:101180000450000AD8B4C7EF08F0AAEF08F00350E3
:10119000010AD8B4AAEF08F0030AD8B4AEEF08F0F9
:1011A000010AD8B4B3EF08F0070AD8B4B8EF08F0D2
:1011B000AAEF08F00550800918EC07F01200949C83
:1011C000948E0FC005F010C006F011C007F012C0D9
:1011D00008F0000E016E2D0E026E310E036E010E30
:1011E000046E10EC06F001C013F002C014F003C04E
:1011F00015F004C016F013C001F014C002F015C0C1
:1012000003F016C004F0400E056E000E066E000ED0
:10121000076E000E086E10EC06F00104AF6EAC9481
:10122000AC98AB8EAC9CAC8AAB9CAB881200000E29
:10123000076E000E076E2CEF09F007500224056EB2
:10124000000E0320066E05C0F6FF06C0F7FF08007B
:10125000F55087EC07F0072A0450075CD8A033EF5D
:1012600009F035EF09F01DEF09F01200A20EF66E3D
:10127000120EF76E000EF86E00EE37F010EE11F061
:101280000900F5CFEEFFE550E150FAE100EE22F063
:10129000150EEE6AE806FDE1000EF86E0001F2EFB1
:1012A00007F03132334134353642373839432A304A
:0312B000234401D3
:1012B400F00E9316F00E9312F19E1200016E01C00F
:0C12C400ADFF1200010E18EC07F0120044
:020000040020DA
:08000000FFFFFFFFFFFFFFFF00
:020000040030CA
:0E000000000C1F1EFF8181FF0FC00FE00F409C
:00000001FF
