:020000040000FA
:04000000E3EF05F035
:1008000000DC0BB80B000100019E0A00000202028E
:1008100002D60BB80B02020303100A00000000000E
:100820000000000E0A6E08BE1AEF04F018EF04F084
:1008300024EF04F0081E071E061E056C000E06229B
:1008400007220822010E0A6E04BE2BEF04F029EFE6
:1008500004F035EF04F0041E031E021E016C000EAE
:10086000022203220422010E0A1A000E0B6E000E51
:100870000C6E000E0D6E000E0E6E05500610071069
:100880000810D8B446EF04F048EF04F07EEF04F00F
:10089000010E096E52EF04F0D89005360636073681
:1008A0000836092A08AE57EF04F059EF04F04CEF70
:1008B00004F0D8900B360C360D360E360550015C20
:1008C000065002580750035808500458D8A06BEF40
:1008D00004F06DEF04F076EF04F00550015E065071
:1008E000025A0750035A0850045A0B80D890083215
:1008F000073206320532092E59EF04F00A50D8B4F7
:1009000084EF04F086EF04F08EEF04F00E1E0D1E4F
:100910000C1E0B6C000E0C220D220E220BC001F0DF
:100920000CC002F00DC003F00EC004F01200800EE7
:100930000F6E250E106E000E116E000E126E96ECEC
:1009400005F0CEEC05F0000E1D6EF1EC05F01E6E0C
:100950001D50080D010EF324F66E080EF420F76EFC
:1009600002D8BFEF04F00500FA6E0900F550FD6EE5
:100970000900F550FE6EF850FF6EFA501200000E9E
:100980001A6E000E196ECFEF04F00B0E176E620E8A
:10099000E82EFED7172EFCD700D0194A1A2A1D5070
:1009A000080D020EF326000EF422010EF324F66E5B
:1009B000080EF420F76E0900F550195C0900F55097
:1009C0001A58D8A0E6EF04F0E8EF04F0C5EF04F001
:1009D00080CF1BF01C6A1D50080D010E176E080E0B
:1009E000186EF3501726F45018221B5017261C506F
:1009F0001822040E1726000E182217C0F6FF18C082
:100A0000F7FF0800F5CF1DF0A5EF04F000EF00F0B0
:100A1000140E8A6E090E026E1E0E016EE40EE82E92
:100A2000FED7012EFCD7022EFAD700D0040E8A6E14
:100A3000090E026E1E0E016EE40EE82EFED7012E88
:100A4000FCD7022EFAD700D0140E8A6E090E026E61
:100A50001E0E016EE40EE82EFED7012EFCD7022EEC
:100A6000FAD700D0040E8A6E090E026E1E0E016EB9
:100A7000E40EE82EFED7012EFCD7022EFAD700D0C6
:100A8000140E8A6E090E026E1E0E016EE40EE82E22
:100A9000FED7012EFCD7022EFAD700D01200220E6C
:100AA0008A6E090E026E1E0E016EE40EE82EFED74F
:100AB000012EFCD7022EFAD700D0200E8A6E090E26
:100AC000026E1E0E016EE40EE82EFED7012EFCD73C
:100AD000022EFAD700D0220E8A6E090E026E1E0E6A
:100AE000016EE40EE82EFED7012EFCD7022EFAD7B7
:100AF00000D0200E8A6E090E026E1E0E016EE40EEC
:100B0000E82EFED7012EFCD7022EFAD700D0220EF7
:100B10008A6E090E026E1E0E016EE40EE82EFED7DE
:100B2000012EFCD7022EFAD700D01200949C948E8E
:100B30000FC005F010C006F011C007F012C008F099
:100B4000000E016E5A0E026E620E036E020E046EED
:100B500011EC04F001C013F002C014F003C015F052
:100B600004C016F013C001F014C002F015C003F069
:100B700016C004F0400E056E000E066E000E076EE5
:100B8000000E086E11EC04F00104AF6EAC94AC984A
:100B9000AB8EAC9CAC8AAB9CAB881200D3508F0B55
:100BA0006009D36EFC0ED3160F0EC16E000E936E4D
:100BB0009268F28EF28C9D8AD3508F0B6009D36EAF
:100BC000FC0ED31612001D6A1C6A1B6A000EF86E1A
:100BD000000197EF04F00C0E8A6E1200210E8A6E4F
:060BE0001200AE501200ED
:020000040020DA
:08000000FFFFFFFFFFFFFFFF00
:020000040030CA
:0E000000000C1F1EFF8181FF0FC00FE00F409C
:00000001FF
