:020000040000FA
:0400000007EF00F016
:1000080050824FED02F020EF02F0848080868080DD
:1000180007EF01F080808092809423C04DF024C0C7
:100028004EF050EF01F04D504E10D8A41EEF00F0E6
:1000380020EF00F029EF00F01FC04DF020C04EF077
:1000480080808082809450EF01F08080808280944C
:100058004F2A4D06D8A04E0650EF01F04D504E10D5
:10006800D8A439EF00F03BEF00F044EF00F021C0D6
:100078004DF022C04EF080908092808450EF01F0C5
:100088008090809280842CEF00F04D504E10D8B4B0
:1000980050EF00F052EF00F057EF00F080908082B0
:1000A80080942CEF00F080808092809450EF01F0D3
:1000B80080808092809450EF01F080868098809AAA
:1000C80023C04BF024C04CF050EF01F04B504C10C3
:1000D800D8A471EF00F073EF00F07CEF00F01FC0C0
:1000E8004BF020C04CF080868088809A50EF01F059
:1000F80080868088809A4F064B06D8A04C0650EF21
:1001080001F04B504C10D8A48CEF00F08EEF00F0AB
:1001180097EF00F021C04BF022C04CF080968098F9
:10012800808A50EF01F080968098808A7FEF00F0F7
:100138004B504C10D8B4A3EF00F0A5EF00F0AAEF95
:1001480000F080968088809A7FEF00F08086809803
:10015800809A50EF01F080868098809A50EF01F0E5
:1001680084808492849423C049F024C04AF050EFDC
:1001780001F049504A10D8A4C4EF00F0C6EF00F0CF
:10018800CFEF00F01FC049F020C04AF0848084827D
:10019800849450EF01F08480848284944F06490649
:1001A800D8A04A0650EF01F049504A10D8A4DFEF12
:1001B80000F0E1EF00F0EAEF00F021C049F022C0C2
:1001C8004AF084908492848450EF01F08490849261
:1001D8008484D2EF00F049504A10D8B4F6EF00F00A
:1001E800F8EF00F0FDEF00F0849084828494D2EF61
:1001F80000F084808492849450EF01F0848084928B
:10020800849450EF01F04F50256E266A2650000A5C
:10021800D8B411EF01F050EF01F02550000AD8B41E
:100228000EEF00F0010AD8B417EF00F0030AD8B4B3
:1002380032EF00F0010AD8B449EF00F0070AD8B449
:100248005CEF00F0010AD8B461EF00F0030AD8B4FB
:100258006AEF00F0010AD8B485EF00F00F0AD8B4AD
:100268009CEF00F0010AD8B4AFEF00F0030AD8B44D
:10027800B4EF00F0010AD8B4BDEF00F0070AD8B413
:10028800D8EF00F0010AD8B4EFEF00F0030AD8B4B1
:1002980002EF01F050EF01F04F2A0E0E4F6457EFB6
:1002A80001F059EF01F05BEF01F0000E4F6E120004
:1002B8000F0EC16E000E926E000E966E000E946EBA
:1002C800000E276E000E286E000E296E060E2A6E8E
:1002D800010E2B6E000EF8EC01F0E10ED76E7B0ECE
:1002E800D66E000E946E000E956E000E826E000E95
:1002F800836EF28EF28CF28A84808086808084926B
:10030800809880928494809A8094000E286E000EC3
:10031800276E000E2A6E010E296EC9EC01F04DC041
:1003280027F04EC028F0000E2A6E020E296EC9EC86
:1003380001F0000E286E000E276E000E2A6E030EC6
:10034800296EC9EC01F04BC027F04CC028F0000E14
:100358002A6E040E296EC9EC01F0000E286E000EFC
:10036800276E000E2A6E050E296EC9EC01F049C0F1
:1003780027F04AC028F0000E2A6E060E296EC9EC36
:1003880001F089EF01F007EF00F020EE01F010EE28
:100398002BF0130EDBCFE3FFE806FCE220EE15F0AE
:1003A80010EE3FF0090EDBCFE3FFE806FCE2D89041
:1003B8002734D96E2834DA6E2B0ED926000EDA22AD
:1003C800DF50826ED8902934D96E2A34DA6E3F0E07
:1003D800D926000EDA22DF50836EC80E00D0E82E30
:1003E800FDD7000E836E12002C6E2BB002D0D59E66
:1003F80001D0D58E2CB002D0D59A01D0D58A27B09D
:1004080002D0D59C01D0D58C28B002D0D59801D087
:10041800D58829B002D0D59601D0D586D5502A18CE
:10042800F80B2A18D56ED5AA1CEF02F01EEF02F0C1
:100438001FEF02F0928812007A0EF66E040EF76E25
:10044800000EF86E00EE01F010EE24F00900F5CF72
:10045800EEFFE550E150FAE100EE49F0070EEE6AD2
:10046800E806FDE150905092000EF86E00015CEF36
:1004780001F08000F9004400600039002A000A00F9
:10048800F80000003000000001000200040008002D
:100498000400020004000600E10ED76E7B0ED66E43
:0A04A80009EC00F0F29450921100EC
:020000040020DA
:08000000FFFFFFFFFFFFFFFF00
:020000040030CA
:0E0000000000181EFF8181FF0FC00FE00F40AF
:00000001FF
